{
  "_format": "hh-sol-artifact-1",
  "contractName": "TransactionAgreement",
  "sourceName": "contracts/TransactionAggreement.sol",
  "abi": [
    {
      "anonymous": false,
      "inputs": [
        {
          "indexed": false,
          "internalType": "string",
          "name": "key",
          "type": "string"
        },
        {
          "indexed": false,
          "internalType": "string",
          "name": "cid",
          "type": "string"
        }
      ],
      "name": "AgreementStored",
      "type": "event"
    },
    {
      "inputs": [
        {
          "internalType": "uint256",
          "name": "",
          "type": "uint256"
        }
      ],
      "name": "agreementKeys",
      "outputs": [
        {
          "internalType": "string",
          "name": "",
          "type": "string"
        }
      ],
      "stateMutability": "view",
      "type": "function"
    },
    {
      "inputs": [
        {
          "internalType": "string",
          "name": "",
          "type": "string"
        }
      ],
      "name": "agreements",
      "outputs": [
        {
          "internalType": "string",
          "name": "cid",
          "type": "string"
        },
        {
          "internalType": "uint256",
          "name": "timestamp",
          "type": "uint256"
        }
      ],
      "stateMutability": "view",
      "type": "function"
    },
    {
      "inputs": [
        {
          "internalType": "string",
          "name": "key",
          "type": "string"
        }
      ],
      "name": "getAgreement",
      "outputs": [
        {
          "internalType": "string",
          "name": "cid",
          "type": "string"
        },
        {
          "internalType": "uint256",
          "name": "timestamp",
          "type": "uint256"
        }
      ],
      "stateMutability": "view",
      "type": "function"
    },
    {
      "inputs": [],
      "name": "getAgreementKeys",
      "outputs": [
        {
          "internalType": "string[]",
          "name": "",
          "type": "string[]"
        }
      ],
      "stateMutability": "view",
      "type": "function"
    },
    {
      "inputs": [
        {
          "internalType": "string",
          "name": "key",
          "type": "string"
        },
        {
          "internalType": "string",
          "name": "cid",
          "type": "string"
        }
      ],
      "name": "storeAgreement",
      "outputs": [],
      "stateMutability": "nonpayable",
      "type": "function"
    }
  ],
  "bytecode": "0x608060405234801561001057600080fd5b50610cc2806100206000396000f3fe608060405234801561001057600080fd5b50600436106100575760003560e01c80630909596b1461005c578063668e73dc1461007a578063cdd82d1d14610096578063e1a7ccfb146100c7578063f169cac9146100f8575b600080fd5b610064610128565b60405161007191906109cb565b60405180910390f35b610094600480360381019061008f919061073e565b610201565b005b6100b060048036038101906100ab91906106fd565b610346565b6040516100be929190610a46565b60405180910390f35b6100e160048036038101906100dc91906106fd565b61046f565b6040516100ef929190610a46565b60405180910390f35b610112600480360381019061010d91906107aa565b610531565b60405161011f91906109ed565b60405180910390f35b60606001805480602002602001604051908101604052809291908181526020016000905b828210156101f857838290600052602060002001805461016b90610bd4565b80601f016020809104026020016040519081016040528092919081815260200182805461019790610bd4565b80156101e45780601f106101b9576101008083540402835291602001916101e4565b820191906000526020600020905b8154815290600101906020018083116101c757829003601f168201915b50505050508152602001906001019061014c565b50505050905090565b6000808360405161021291906109b4565b9081526020016040518091039020600001805461022e90610bd4565b905014610270576040517f08c379a000000000000000000000000000000000000000000000000000000000815260040161026790610a76565b60405180910390fd5b60405180604001604052808281526020014281525060008360405161029591906109b4565b908152602001604051809103902060008201518160000190805190602001906102bf9291906105dd565b50602082015181600101559050506001829080600181540180825580915050600190039060005260206000200160009091909190915090805190602001906103089291906105dd565b507f130c445d7c107495f51494b69bdc02e1b877e6beafb5dad9f7a8e87bef3f57ba828260405161033a929190610a0f565b60405180910390a15050565b606060008060008460405161035b91906109b4565b908152602001604051809103902060405180604001604052908160008201805461038490610bd4565b80601f01602080910402602001604051908101604052809291908181526020018280546103b090610bd4565b80156103fd5780601f106103d2576101008083540402835291602001916103fd565b820191906000526020600020905b8154815290600101906020018083116103e057829003601f168201915b5050505050815260200160018201548152505090506000816000015151141561045b576040517f08c379a000000000000000000000000000000000000000000000000000000000815260040161045290610a96565b60405180910390fd5b806000015181602001519250925050915091565b6000818051602081018201805184825260208301602085012081835280955050505050506000915090508060000180546104a890610bd4565b80601f01602080910402602001604051908101604052809291908181526020018280546104d490610bd4565b80156105215780601f106104f657610100808354040283529160200191610521565b820191906000526020600020905b81548152906001019060200180831161050457829003601f168201915b5050505050908060010154905082565b6001818154811061054157600080fd5b90600052602060002001600091509050805461055c90610bd4565b80601f016020809104026020016040519081016040528092919081815260200182805461058890610bd4565b80156105d55780601f106105aa576101008083540402835291602001916105d5565b820191906000526020600020905b8154815290600101906020018083116105b857829003601f168201915b505050505081565b8280546105e990610bd4565b90600052602060002090601f01602090048101928261060b5760008555610652565b82601f1061062457805160ff1916838001178555610652565b82800160010185558215610652579182015b82811115610651578251825591602001919060010190610636565b5b50905061065f9190610663565b5090565b5b8082111561067c576000816000905550600101610664565b5090565b600061069361068e84610ae7565b610ab6565b9050828152602081018484840111156106ab57600080fd5b6106b6848285610b92565b509392505050565b600082601f8301126106cf57600080fd5b81356106df848260208601610680565b91505092915050565b6000813590506106f781610c75565b92915050565b60006020828403121561070f57600080fd5b600082013567ffffffffffffffff81111561072957600080fd5b610735848285016106be565b91505092915050565b6000806040838503121561075157600080fd5b600083013567ffffffffffffffff81111561076b57600080fd5b610777858286016106be565b925050602083013567ffffffffffffffff81111561079457600080fd5b6107a0858286016106be565b9150509250929050565b6000602082840312156107bc57600080fd5b60006107ca848285016106e8565b91505092915050565b60006107df838361085c565b905092915050565b60006107f282610b27565b6107fc8185610b4a565b93508360208202850161080e85610b17565b8060005b8581101561084a578484038952815161082b85826107d3565b945061083683610b3d565b925060208a01995050600181019050610812565b50829750879550505050505092915050565b600061086782610b32565b6108718185610b5b565b9350610881818560208601610ba1565b61088a81610c64565b840191505092915050565b60006108a082610b32565b6108aa8185610b6c565b93506108ba818560208601610ba1565b6108c381610c64565b840191505092915050565b60006108d982610b32565b6108e38185610b7d565b93506108f3818560208601610ba1565b80840191505092915050565b600061090c602683610b6c565b91507f41677265656d656e7420776974682074686973206b657920616c72656164792060008301527f65786973747300000000000000000000000000000000000000000000000000006020830152604082019050919050565b6000610972601383610b6c565b91507f41677265656d656e74206e6f7420666f756e64000000000000000000000000006000830152602082019050919050565b6109ae81610b88565b82525050565b60006109c082846108ce565b915081905092915050565b600060208201905081810360008301526109e581846107e7565b905092915050565b60006020820190508181036000830152610a078184610895565b905092915050565b60006040820190508181036000830152610a298185610895565b90508181036020830152610a3d8184610895565b90509392505050565b60006040820190508181036000830152610a608185610895565b9050610a6f60208301846109a5565b9392505050565b60006020820190508181036000830152610a8f816108ff565b9050919050565b60006020820190508181036000830152610aaf81610965565b9050919050565b6000604051905081810181811067ffffffffffffffff82111715610add57610adc610c35565b5b8060405250919050565b600067ffffffffffffffff821115610b0257610b01610c35565b5b601f19601f8301169050602081019050919050565b6000819050602082019050919050565b600081519050919050565b600081519050919050565b6000602082019050919050565b600082825260208201905092915050565b600082825260208201905092915050565b600082825260208201905092915050565b600081905092915050565b6000819050919050565b82818337600083830152505050565b60005b83811015610bbf578082015181840152602081019050610ba4565b83811115610bce576000848401525b50505050565b60006002820490506001821680610bec57607f821691505b60208210811415610c0057610bff610c06565b5b50919050565b7f4e487b7100000000000000000000000000000000000000000000000000000000600052602260045260246000fd5b7f4e487b7100000000000000000000000000000000000000000000000000000000600052604160045260246000fd5b6000601f19601f8301169050919050565b610c7e81610b88565b8114610c8957600080fd5b5056fea2646970667358221220d5488c82567c7346ac93bad76268fe8a6fe83ec6d4c44bea93110ca1204f100164736f6c63430008000033",
  "linkReferences": {},
  "deployedLinkReferences": {}
}